:1000000045C0000060C000005EC000005CC0000091
:100010005AC0000058C0000056C0000054C0000084
:1000200052C0000050C000004EC000004CC0000094
:100030004AC0000048C0000058C0000044C0000092
:1000400042C0000040C000003EC000003CC00000B4
:100050003AC0000038C0000036C0000034C00000C4
:1000600032C0000030C000002EC000002CC00000D4
:100070002AC0000073C0000026C0000024C0000099
:1000800022C0000020C000001EC0000011241FBEBE
:10009000CFEFD0E1DEBFCDBF11E0A0E0B1E0EAEFED
:1000A000F1E000E00BBF02C007900D92A231B10752
:1000B000D9F721E0A2E1B1E001C01D92A531B2075C
:1000C000E1F76ED098C09CCF84E087BF8EBD2AE256
:1000D00036E53DBD2CBD87BF80938A0084E19FEF4C
:1000E000909389008093880008951F920F920FB615
:1000F0000F9211240BB60F922F933F938F939F93E0
:10010000EF93FF938AE296E59DBD8CBD809113012C
:10011000909114018430910578F01092140110929E
:100120001301E0E0F1E028E031E0808180958193E7
:10013000E217F307D1F705C001969093140180935D
:100140001301FF91EF919F918F913F912F910F900C
:100150000BBE0F900FBE0F901F9018951F920F921D
:100160000FB60F9211248F939F9384E19FEF90938A
:100170008900809388008091120190E00196877039
:100180009078992324F40197886F9F6F019680934C
:1001900012019F918F910F900FBE0F901F90189595
:1001A000CF93DF93CDB7DEB729970FB6F894DEBFB4
:1001B0000FBECDBF8FEF8ABB80EF81BB85DF789408
:1001C00089E0E8E0F1E0DE01119601900D928A9558
:1001D000E1F780911201E1E0F0E0EC0FFD1FE80F84
:1001E000F11D808182BBE0911201F0E0E050FF4FF1
:0A01F00080818BBBEECFF894FFCFA7
:1001FA000F09090FF09090F0001020304050607005
:02020A00800072
:00000001FF
